:04000000016BC09937
:0400010001D79C592E
:040002000061157E06
:04000300013D9FDB41
:0400040001D37C8E1A
:04000500014D67AB97
:040006000061157E02
:0400070001C8EE4EF0
:04000800015D56FF41
:0400090001CFE8F546
:04000A000181FF373A
:04000B000180539D80
:04000C0001E8CEE950
:04000D0001C1A9FF85
:04000E0001F9B0CF75
:04000F0001A802E45E
:04001000016AB9FDCB
:0400110001F1FB1BE3
:0400120001583785D5
:0400130001ABE1CB91
:04001400018A53CF3B
:040015000176580D0B
:0400160001EE0E40A9
:0400170001DAE1B475
:0400180001743BB87C
:040019000182AE7B37
:04001A0001D6C37ECA
:04001B000162FE126E
:04001C0001ACAA5831
:04001D0001C84914B9
:04001E00015A17D894
:04001F0001A23C906E
:04002000016BD2504E
:0400210001D791CCA6
:040022000061157EE6
:04002300013D9839CA
:0400240001D3706232
:04002500014D5DD15B
:040026000061157EE2
:0400270001C8F4997F
:04002800015D47EB44
:0400290001CFF4C04F
:04002A000181EEC39F
:04002B0001805CE113
:04002C0001E8C7E53B
:04002D0001C1B18CD0
:04002E0001F9AEC85E
:04002F0001A7F457DA
:04003000016AC6DAC1
:0400310001F1F7E4FE
:0400320001583FD35F
:0400330001ABD2B497
:04003400018A631AC0
:04003500017666C525
:0400360001EE14289B
:0400370001DAEDC538
:0400380001743FF11F
:040039000182A12B74
:04003A0001D6C331F7
:04003B00016307EB6B
:04003C0001AC9AC6B3
:04003D0001C83F16A1
:04003E00015A1F2420
:04003F0001A24C6B63
:04004000016BE40963
:0400410001D7873D1F
:040042000061157EC6
:04004300013D909B50
:0400440001D364344C
:04004500014D53FA1C
:040046000061157EC2
:0400470001C8FAE111
:04004800015D38D945
:0400490001D0008A58
:04004A000181DE5002
:04004B0001806629A1
:04004C0001E8C0DF28
:04004D0001C1B9161E
:04004E0001F9ACBE4A
:04004F0001A7E5C858
:04005000016AD3B9B5
:0400510001F1F4AB1A
:0400520001584825E4
:0400530001ABC39D9D
:04005400018A726546
:040055000176757E3D
:0400560001EE1A0F8E
:0400570001DAF9D4FD
:040058000174442EBD
:04005900018293DDB0
:04005A0001D6C2E128
:04005B00016311C963
:04005C0001AC8B3533
:04005D0001C835158C
:04005E00015A2674A9
:04005F0001A25C4658
:04006000016BF5C279
:0400610001D77CAD9A
:040062000061157EA6
:04006300013D8901D1
:0400640001D3580468
:04006500014D4A27D8
:040066000061157EA2
:0400670001C90126A4
:04006800015D29C944
:0400690001D00C5363
:04006A000181CDDE65
:04006B0001806F752C
:04006C0001E8B9D618
:04006D0001C1C09D70
:04006E0001F9AAB238
:04006F0001A7D738D6
:04007000016AE09AA7
:0400710001F1F16F39
:040072000158507C65
:0400730001ABB484A5
:04007400018A81AFCD
:040075000176843755
:0400760001EE1FF385
:0400770001DB05E0C4
:040078000174487057
:0400790001828690EA
:04007A0001D6C28E5B
:04007B0001631BAA58
:04007C0001AC7BA4B4
:04007D0001C82B1279
:04007E00015A2DC92D
:04007F0001A26C204E
:04008000016C077D8B
:0400810001D7721A17
:040082000061157E86
:04008300013D816A50
:0400840001D34BD386
:04008500014D405891
:040086000061157E82
:0400870001C907673D
:04008800015D1ABB41
:0400890001D0181971
:04008A000181BD6DC6
:04008B00018078C5B3
:04008C0001E8B2CA0B
:04008D0001C1C821C4
:04008E0001F9A8A329
:04008F0001A7C8A657
:04009000016AED7E96
:0400910001F1EE2F5C
:04009200015858D8E1
:0400930001ABA56BAD
:04009400018A90FA53
:04009500017692F26C
:0400960001EE25D57D
:0400970001DB11EA8E
:0400980001744CB6ED
:040099000182794522
:04009A0001D6C23693
:04009B000163258E4A
:04009C0001AC6C1334
:04009D0001C8210B6A
:04009E00015A3522AC
:04009F0001A27BF946
:0400A000016C19399D
:0400A10001D7678597
:0400A2000061157E66
:0400A300013D79D7CB
:0400A40001D33FA0A5
:0400A500014D368C47
:0400A6000061157E62
:0400A70001C90DA5D9
:0400A800015D0BAE3D
:0400A90001D023DF80
:0400AA000181ACFC28
:0400AB000180821836
:0400AC0001E8ABBDFF
:0400AD0001C1CFA21C
:0400AE0001F9A6921C
:0400AF0001A7BA12D9
:0400B000016AFA6384
:0400B10001F1EAED82
:0400B2000158613759
:0400B30001AB9650B7
:0400B400018AA044D9
:0400B5000176A1AD82
:0400B60001EE2BB478
:0400B70001DB1DF25A
:0400B800017451017D
:0400B90001826BFB5A
:0400BA0001D6C1DCCE
:0400BB0001632F7737
:0400BC0001AC5C82B5
:0400BD0001C817025D
:0400BE00015A3C7F28
:0400BF0001A28BD23D
:0400C000016C2AF5B0
:0400C10001D75CEE19
:0400C2000061157E46
:0400C300013D724841
:0400C40001D3336BC6
:0400C500014D2CC3FA
:0400C6000061157E42
:0400C70001C913DF79
:0400C800015CFCA437
:0400C90001D02FA390
:0400CA0001819C8D87
:0400CB0001808B6FB6
:0400CC0001E8A4ACF7
:0400CD0001C1D72076
:0400CE0001F9A47E12
:0400CF0001A7AB7D5D
:0400D000016B074A6F
:0400D10001F1E7A8AA
:0400D2000158699BCD
:0400D30001AB8735C1
:0400D400018AAF8F5F
:0400D5000176B06997
:0400D60001EE319274
:0400D70001DB29F828
:0400D8000174555109
:0400D90001825EB38F
:0400DA0001D6C17D0D
:0400DB000163396321
:0400DC0001AC4CF136
:0400DD0001C80CF654
:0400DE00015A43E29E
:0400DF0001A29BAB34
:0400E000016C3CB3C0
:0400E10001D752559C
:0400E2000061157E26
:0400E300013D6ABCB5
:0400E40001D32735E8
:0400E500014D22FEA9
:0400E6000061157E22
:0400E70001C91A161B
:0400E800015CED9B2F
:0400E90001D03B65A2
:0400EA0001818C1EE6
:0400EB00018094C933
:0400EC0001E89D99F1
:0400ED0001C1DE9BD4
:0400EE0001F9A2670B
:0400EF0001A79CE7E2
:0400F000016B143359
:0400F10001F1E460D5
:0400F200015872033C
:0400F30001AB7818CD
:0400F400018ABED9E6
:0400F5000176BF26AB
:0400F60001EE376E72
:0400F70001DB35FBF9
:0400F800017459A591
:0400F9000182516CC3
:0400FA0001D6C11B4F
:0400FB000163435307
:0400FC0001AC3D60B6
:0400FD0001C802E74D
:0400FE00015A4B4810
:0400FF0001A2AB822D
:04010000016C4E71CF
:0401010001D747BA21
:040102000061157E05
:04010300013D633423
:0401040001D31AFC0D
:04010500014D193D52
:040106000061157E01
:0401070001C9204AC0
:04010800015CDE9424
:0401090001D04726B4
:04010A0001817BB044
:04010B0001809E28A9
:04010C0001E89684EC
:04010D0001C1E61234
:04010E0001F9A04E05
:04010F0001A78E4F67
:04011000016B211E40
:0401110001F1E11502
:0401120001587A70A6
:0401130001AB68FADA
:04011400018ACE236B
:040115000176CDE4BE
:0401160001EE3D4871
:0401170001DB41FCCB
:0401180001745DFE13
:0401190001824427F4
:04011A0001D6C0B694
:04011B0001634D47E8
:04011C0001AC2DD035
:04011D0001C7F8D648
:04011E00015A52B37D
:04011F0001A2BB5A24
:04012000016C6031DD
:0401210001D73D1DA8
:040122000061157EE5
:04012300013D5BB08F
:0401240001D30EC233
:04012500014D0F7FFA
:040126000061157EE1
:0401270001C9267A6A
:04012800015CCF8F18
:0401290001D052E5CA
:04012A0001816B43A1
:04012B000180A7891F
:04012C0001E88F6CEB
:04012D0001C1ED8798
:04012E0001F99E3302
:04012F0001A77FB5F0
:04013000016B2E0B26
:0401310001F1DDC734
:04013200015882E00E
:0401330001AB59DCE7
:04013400018ADD6DF2
:040135000176DCA2D1
:0401360001EE431F74
:0401370001DB4DFBA0
:040138000174625B91
:04013900018236E326
:04013A0001D6C04CDE
:04013B000163573EC7
:04013C0001AC1E3FB5
:04013D0001C7EEC246
:04013E00015A5A23E5
:04013F0001A2CB301E
:04014000016C71F2EB
:0401410001D7327F31
:040142000061157EC5
:04014300013D542FF7
:0401440001D302865B
:04014500014D05C59E
:040146000061157EC1
:0401470001C92CA717
:04014800015CC08C0A
:0401490001D05EA3E0
:04014A0001815AD7FE
:04014B000180B0EF90
:04014C0001E88852EC
:04014D0001C1F4F800
:04014E0001F99C1502
:04014F0001A7711A79
:04015000016B3AFA0B
:0401510001F1DA7767
:0401520001588B566F
:0401530001AB4ABCF6
:04015400018AECB779
:040155000176EB61E3
:0401560001EE48F579
:0401570001DB59F778
:04015800017466BD0B
:04015900018229A155
:04015A0001D6BFE02B
:04015B000163613AA1
:04015C0001AC0EAF35
:04015D0001C7E4AB47
:04015E00015A61974A
:04015F0001A2DB0618
:04016000016C83B4F7
:0401610001D727DEBD
:040162000061157EA5
:04016300013D4CB25C
:0401640001D2F64985
:04016500014CFC0E3F
:040166000061157EA1
:0401670001C932D1C7
:04016800015CB18BFA
:0401690001D06A60F7
:04016A0001814A6C59
:04016B000180BA58FD
:04016C0001E88135F0
:04016D0001C1FC6769
:04016E0001F999F406
:04016F0001A7627D05
:04017000016B47EBED
:0401710001F1D7239E
:04017200015893CFCE
:0401730001AB3B9C05
:04017400018AFC0000
:040175000176FA21F4
:0401760001EE4EC880
:0401770001DB65F152
:0401780001746B247F
:0401790001821C6083
:04017A0001D6BF6F7C
:04017B0001636B3879
:04017C0001ABFF1FB5
:04017D0001C7DA914B
:04017E00015A6910A9
:04017F0001A2EADB14
:04018000016C957603
:0401810001D71D3B4A
:040182000061157E85
:04018300013D4539BC
:0401840001D2EA0AB0
:04018500014CF25BDC
:040186000061157E81
:0401870001C938F77B
:04018800015CA28BE9
:0401890001D0761B10
:04018A0001813A02B3
:04018B000180C3C468
:04018C0001E87A15F7
:04018D0001C203D2D6
:04018E0001F997D10B
:04018F0001A753DF92
:04019000016B54DECD
:0401910001F1D3CCD9
:0401920001589C4D27
:0401930001AB2C7A16
:04019400018B0B4A86
:04019500017708E204
:0401960001EE549A88
:0401970001DB71E92E
:0401980001746F8FF0
:0401990001820F21AF
:04019A0001D6BEFBD1
:04019B000163753B4C
:04019C0001ABEF8F35
:04019D0001C7D07452
:04019E00015A708D05
:04019F0001A2FAB00F
:0401A000016CA73A0D
:0401A10001D71296DA
:0401A2000061157E65
:0401A300013D3DC31A
:0401A40001D2DDC9DE
:0401A500014CE8AB76
:0401A6000061157E61
:0401A70001C93F1932
:0401A800015C938ED5
:0401A90001D081D42C
:0401AA00018129980E
:0401AB000180CD35CD
:0401AC0001E872F301
:0401AD0001C20B3B45
:0401AE0001F995AB13
:0401AF0001A7453F20
:0401B000016B61D3AB
:0401B10001F1D07315
:0401B2000158A4CF7D
:0401B30001AB1D5728
:0401B400018B1A930E
:0401B500017717A413
:0401B60001EE5A6993
:0401B70001DB7DDE0D
:0401B800017473FE5D
:0401B900018201E3DB
:0401BA0001D6BE8428
:0401BB0001637F411C
:0401BC0001ABDFFFB5
:0401BD0001C7C6555B
:0401BE00015A780E5C
:0401BF0001A30A840A
:0401C000016CB8FF17
:0401C10001D707EF6C
:0401C2000061157E45
:0401C300013D365173
:0401C40001D2D1860D
:0401C500014CDEFF0C
:0401C6000061157E41
:0401C70001C94539EC
:0401C800015C8492C0
:0401C90001D08D8C48
:0401CA000181193066
:0401CB000180D6A930
:0401CC0001E86BCF0C
:0401CD0001C212A0B9
:0401CE0001F993831D
:0401CF0001A7369EB0
:0401D000016B6ECA87
:0401D10001F1CD1754
:0401D2000158AD55CE
:0401D30001AB0E343A
:0401D400018B29DC96
:0401D5000177266622
:0401D60001EE6036A0
:0401D70001DB89D1EE
:0401D80001747872C4
:0401D9000181F4A705
:0401DA0001D6BE0884
:0401DB000163894BE8
:0401DC0001ABD06F34
:0401DD0001C7BC3367
:0401DE00015A7F94AF
:0401DF0001A31A5806
:0401E000016CCAC420
:0401E10001D6FD4600
:0401E2000061157E25
:0401E300013D2EE3C9
:0401E40001D2C5423D
:0401E500014CD5569E
:0401E6000061157E21
:0401E70001C94B55AA
:0401E800015C7598A9
:0401E90001D0994365
:0401EA00018108C8BF
:0401EB000180E0208F
:0401EC0001E864A81A
:0401ED0001C21A022F
:0401EE0001F991582A
:0401EF0001A727FB42
:0401F000016B7BC361
:0401F10001F1C9B798
:0401F2000158B5E01B
:0401F30001AAFF0F4F
:0401F400018B39251D
:0401F5000177352A2F
:0401F60001EE6601AF
:0401F70001DB95C2D1
:0401F80001747CEB27
:0401F9000181E76C2D
:0401FA0001D6BD8AE3
:0401FB0001639359B0
:0401FC0001ABC0E0B3
:0401FD0001C7B20E76
:0401FE00015A871FFC
:0401FF0001A32A2A04
:04020000016CDC8B26
:0402010001D6F29B95
:040202000061157E04
:04020300013D27781A
:0402040001D2B8FB70
:04020500014CCBB12C
:040206000061157E00
:0402070001C9516D6B
:04020800015C66A08F
:0402090001D0A4F785
:04020A000180F86116
:04020B000180E99BEA
:04020C0001E85D7F29
:04020D0001C22161A8
:04020E0001F98F2B38
:04020F0001A71956D4
:04021000016B88BE38
:0402110001F1C655DC
:040212000158BE6E63
:0402130001AAEFEA63
:04021400018B486EA4
:04021500017743EE3C
:0402160001EE6BCAC0
:0402170001DBA1B0B6
:040218000174816884
:040219000181DA3352
:04021A0001D6BD0745
:04021B0001639D6A74
:04021C0001ABB15031
:04021D0001C7A7E787
:04021E00015A8EAE45
:04021F0001A339FD01
:04022000016CEE532C
:0402210001D6E7EE2D
:040222000061157EE4
:04022300013D201168
:0402240001D2ACB4A3
:04022500014CC20FB7
:040226000061157EE0
:0402270001C9578230
:04022800015C57AA74
:0402290001D0B0ABA5
:04022A000180E7FB6D
:04022B000180F31A41
:04022C0001E856533C
:04022D0001C228BD25
:04022E0001F98CFB4B
:04022F0001A70AB069
:04023000016B95BA0F
:0402310001F1C2F025
:040232000158C702A6
:0402330001AAE0C379
:04023400018B57B72C
:04023500017752B249
:0402360001EE7191D3
:0402370001DBAD9C9E
:04023800017485EADE
:040239000181CCFC77
:04023A0001D6BC82AB
:04023B000163A77F35
:04023C0001ABA1C1B0
:04023D0001C79DBD9B
:04023E00015A96418A
:04023F0001A349CE00
:04024000016D001B31
:0402410001D6DD40C5
:040242000061157EC4
:04024300013D18AEB3
:0402440001D2A06AD9
:04024500014CB8723E
:040246000061157EC0
:0402470001C95D94F8
:04024800015C48B657
:0402490001D0BC5DC7
:04024A000180D796C2
:04024B000180FC9C96
:04024C0001E84F2452
:04024D0001C23016A4
:04024E0001F98AC95F
:04024F0001A6FC09FF
:04025000016BA2B9E3
:0402510001F1BF8870
:040252000158CF99E7
:0402530001AAD19B90
:04025400018B66FFB5
:040255000177617854
:0402560001EE7756E8
:0402570001DBB98688
:0402580001748A7033
:040259000181BFC69A
:04025A0001D6BBF816
:04025B000163B198F2
:04025C0001AB92322E
:04025D0001C79390B2
:04025E00015A9DD9CB
:04025F0001A3599FFF
:04026000016D11E536
:0402610001D6D28F61
:040262000061157EA4
:04026300013D114EFA
:0402640001D2941E11
:04026500014CAED7C3
:040266000061157EA0
:0402670001C963A2C4
:04026800015C39C438
:0402690001D0C80DEB
:04026A000180C73216
:04026B0001810622E5
:04026C0001E847F36B
:04026D0001C2376C27
:04026E0001F9889476
:04026F0001A6ED6097
:04027000016BAFBAB5
:0402710001F1BC1DBE
:040272000158D83522
:0402730001AAC273A7
:04027400018B76483C
:040275000177703E5F
:0402760001EE7D1800
:0402770001DBC56E74
:0402780001748EFB84
:040279000181B291BC
:04027A0001D6BB6B83
:04027B000163BBB5AB
:04027C0001AB82A3AD
:04027D0001C78960CC
:04027E00015AA57507
:04027F0001A36970FE
:04028000016D23B039
:0402810001D6C7DCFF
:040282000061157E84
:04028300013D09F23E
:0402840001D287D14B
:04028500014CA54043
:040286000061157E80
:0402870001C969AD93
:04028800015C2AD417
:0402890001D0D3BC11
:04028A000180B6CF6A
:04028B0001810FAC32
:04028C0001E840C085
:04028D0001C23EBFAD
:04028E0001F9865D8F
:04028F0001A6DEB531
:04029000016BBCBC86
:0402910001F1B8AF10
:040292000158E0D55A
:0402930001AAB349C0
:04029400018B8590C5
:0402950001777F0569
:0402960001EE82D91A
:0402970001DBD15363
:040298000174938AD0
:040299000181A55EDC
:04029A0001D6BADAF5
:04029B000163C5D561
:04029C0001AB73152A
:04029D0001C77F2EE8
:04029E00015AAD163E
:04029F0001A3793FFF
:0402A000016D357B3C
:0402A10001D6BD279E
:0402A2000061157E64
:0402A300013D029A7D
:0402A40001D27B8385
:0402A500014C9BADC0
:0402A6000061157E60
:0402A70001C96FB466
:0402A800015C1BE5F5
:0402A90001D0DF6938
:0402AA000180A66DBC
:0402AB00018119397B
:0402AC0001E8398AA2
:0402AD0001C2460F35
:0402AE0001F98423AB
:0402AF0001A6D009CB
:0402B000016BC9C154
:0402B10001F1B53E64
:0402B2000158E9798D
:0402B30001AAA41FD9
:0402B400018B94D84E
:0402B50001778DCD73
:0402B60001EE889835
:0402B70001DBDD3555
:0402B8000174981E17
:0402B9000181982DFA
:0402BA0001D6BA4669
:0402BB000163CFF913
:0402BC0001AB6386A9
:0402BD0001C774F908
:0402BE00015AB4BB72
:0402BF0001A3890E00
:0402C000016D47483D
:0402C10001D6B27040
:0402C2000061157E44
:0402C300013CFB45BA
:0402C40001D26F32C2
:0402C500014C921D39
:0402C6000061157E40
:0402C70001C975B83C
:0402C800015C0CF9D0
:0402C90001D0EB1560
:0402CA000180960C0D
:0402CB00018122CAC1
:0402CC0001E83252C1
:0402CD0001C24D5CC1
:0402CE0001F981E6CB
:0402CF0001A6C15B68
:0402D000016BD6C721
:0402D10001F1B1CABC
:0402D2000158F221BC
:0402D30001AA94F3F5
:0402D400018BA41FD7
:0402D50001779C967B
:0402D60001EE8E5453
:0402D70001DBE91648
:0402D80001749CB65B
:0402D90001818AFD18
:0402DA0001D6B9AEE2
:0402DB000163DA20C1
:0402DC0001AB53F827
:0402DD0001C76AC12A
:0402DE00015ABC65A0
:0402DF0001A398DD02
:0402E000016D59163D
:0402E10001D6A7B7E4
:0402E2000061157E24
:0402E300013CF3F4F3
:0402E40001D262E001
:0402E500014C8891AF
:0402E6000061157E20
:0402E70001C97BB915
:0402E800015BFE0EAA
:0402E90001D0F6C08A
:0402EA00018085AB5F
:0402EB0001812C5E03
:0402EC0001E82B17E3
:0402ED0001C254A551
:0402EE0001F97FA7EC
:0402EF0001A6B2AC06
:0402F000016BE3CFEC
:0402F10001F1AE5316
:0402F2000158FACEE7
:0402F30001AA85C611
:0402F400018BB36760
:0402F5000177AB5F83
:0402F60001EE940E73
:0402F70001DBF4F43F
:0402F8000174A15399
:0402F90001817DCF33
:0402FA0001D6B9135D
:0402FB000163E44B6C
:0402FC0001AB446AA4
:0402FD0001C760864F
:0402FE00015AC413CA
:0402FF0001A3A8AB04
:04030000016D6AE43D
:0403010001D69CFC89
:040302000061157E03
:04030300013CECA726
:0403040001D2568C40
:04030500014C7F091F
:040306000061157EFF
:0403070001C981B6F1
:04030800015BEF2680
:0403090001D10269B3
:04030A000180754CAD
:04030B00018135F641
:04030C0001E823D908
:04030D0001C25BECE2
:04030E0001F97D660E
:04030F0001A6A3FCA4
:04031000016BF0DAB3
:0403110001F1AADA72
:040312000159037F0B
:0403130001AA76992C
:04031400018BC2AEE9
:040315000177BA2989
:0403160001EE99C794
:0403170001DC00D035
:040318000174A5F5D2
:04031900018170A24C
:04031A0001D6B874DC
:04031B000163EE7A12
:04031C0001AB34DC21
:04031D0001C7564975
:04031E00015ACBC6EF
:04031F0001A3B87806
:04032000016D7CB43B
:0403210001D692402F
:040322000061157EE3
:04032300013CE55E56
:0403240001D24A3682
:04032500014C75848E
:040326000061157EDF
:0403270001C987B0D1
:04032800015BE03F56
:0403290001D10E10E0
:04032A00018064EDFD
:04032B0001813F917C
:04032C0001E81C9A2E
:04032D0001C2632F77
:04032E0001F97B2234
:04032F0001A6954A44
:04033000016BFDE67A
:0403310001F1A75DD2
:0403320001590C342D
:0403330001AA676A4A
:04033400018BD1F573
:040335000177C8F490
:0403360001EE9F7DB8
:0403370001DC0CA930
:040338000174AA9B07
:040339000181637764
:04033A0001D6B7D160
:04033B000163F8ADB5
:04033C0001AB254E9E
:04033D0001C74C099F
:04033E00015AD37D10
:04033F0001A3C8440A
:04034000016D8E8439
:0403410001D68781D9
:040342000061157EC3
:04034300013CDE1883
:0403440001D23DDEC7
:04034500014C6C03F8
:040346000061157EBF
:0403470001C98DA6B5
:04034800015BD15A2A
:0403490001D119B60F
:04034A00018054904A
:04034B0001814930B3
:04034C0001E8155758
:04034D0001C26A700F
:04034E0001F978DB5E
:04034F0001A68696E7
:04035000016C0AF43E
:0403510001F1A3DE35
:04035200015914EE4B
:0403530001AA583B68
:04035400018BE13CFC
:040355000177D7C095
:0403560001EEA531DE
:0403570001DC18802D
:040358000174AF4538
:040359000181564D7B
:04035A0001D6B72BE6
:04035B00016402E354
:04035C0001AB15C11B
:04035D0001C741C6CD
:04035E00015ADB382D
:04035F0001A3D8100E
:04036000016DA05536
:0403610001D67CC085
:040362000061157EA3
:04036300013CD6D6AD
:0403640001D231850C
:04036500014C628560
:040366000061157E9F
:0403670001C993999C
:04036800015BC277FC
:0403690001D1255A3F
:04036A000180443397
:04036B00018152D3E7
:04036C0001E80E1284
:04036D0001C271ADAB
:04036E0001F9769289
:04036F0001A677E18B
:04037000016C180400
:0403710001F1A05B9B
:0403720001591DAB65
:0403730001AA490A88
:04037400018BF08386
:040375000177E68C9A
:0403760001EEAAE307
:0403770001DC24552C
:040378000174B3F465
:040379000181492590
:04037A0001D6B68171
:04037B0001640D1DEF
:04037C0001AB063497
:04037D0001C73781FC
:04037E00015AE2F846
:04037F0001A3E7DC13
:04038000016DB22831
:0403810001D671FD33
:040382000061157E83
:04038300013CCF97D3
:0403840001D2252A53
:04038500014C590BC3
:040386000061157E7F
:0403870001C9998986
:04038800015BB396CC
:0403890001D130FD71
:04038A00018033D7E4
:04038B0001815C7917
:04038C0001E806CBB3
:04038D0001C278E74A
:04038E0001F97446B7
:04038F0001A6692A30
:04039000016C2515C2
:0403910001F19CD604
:040392000159266D7A
:0403930001AA39D9A9
:04039400018BFFCA10
:040395000177F5599E
:0403960001EEB09331
:0403970001DC30272E
:040398000174B8A88C
:0403990001813BFFA4
:04039A0001D6B5D4FF
:04039B000164175A88
:04039C0001AAF6A715
:04039D0001C72D382F
:04039E00015AEABC5A
:04039F0001A3F7A619
:0403A000016DC3FB2D
:0403A10001D66738E2
:0403A2000061157E63
:0403A300013CC85DF4
:0403A40001D218CD9D
:0403A500014C4F9424
:0403A6000061157E5F
:0403A70001C99F7574
:0403A800015BA4B79A
:0403A90001D13C9EA4
:0403AA000180237D2E
:0403AB000181662244
:0403AC0001E7FF81E5
:0403AD0001C2801EEB
:0403AE0001F971F8E8
:0403AF0001A65A72D7
:0403B000016C322981
:0403B10001F1994E6F
:0403B20001592F338B
:0403B30001AA2AA6CB
:0403B400018C0F1099
:0403B50001780427A0
:0403B60001EEB6415D
:0403B70001DC3BF733
:0403B8000174BD60AF
:0403B90001812EDAB6
:0403BA0001D6B52390
:0403BB000164219B1D
:0403BC0001AAE71A91
:0403BD0001C722ED65
:0403BE00015AF28569
:0403BF0001A407701E
:0403C000016DD5CF27
:0403C10001D65C7293
:0403C2000061157E43
:0403C300013CC12612
:0403C40001D20C6FE7
:0403C500014C462180
:0403C6000061157E3F
:0403C70001C9A55E65
:0403C800015B95DA66
:0403C90001D1483ED8
:0403CA000180132378
:0403CB0001816FD06D
:0403CC0001E7F83518
:0403CD0001C2875290
:0403CE0001F96FA71B
:0403CF0001A64BB97F
:0403D000016C3F3F3E
:0403D10001F195C3DE
:0403D200015937FE98
:0403D30001AA1B73ED
:0403D400018C1E5624
:0403D500017812F6A3
:0403D60001EEBBEC8D
:0403D70001DC47C539
:0403D8000174C21DCD
:0403D900018121B7C6
:0403DA0001D6B46E26
:0403DB0001642BE0AE
:0403DC0001AAD78D0E
:0403DD0001C718A09C
:0403DE00015AFA5274
:0403DF0001A4173A24
:0403E000016DE7A51F
:0403E10001D651A947
:0403E2000061157E23
:0403E300013CB9F22E
:0403E40001D2000F33
:0403E500014C3CB2D9
:0403E6000061157E1F
:0403E70001C9AB435A
:0403E800015B86FF30
:0403E90001D153DC0F
:0403EA00018002CAC2
:0403EB000181798192
:0403EC0001E7F0E64F
:0403ED0001C28E8338
:0403EE0001F96D5450
:0403EF0001A63CFE29
:0403F000016C4C56FA
:0403F10001F192354F
:0403F200015940CCA1
:0403F30001AA0C3E11
:0403F400018C2D9CAF
:0403F500017821C5A5
:0403F60001EEC196BD
:0403F70001DC539042
:0403F8000174C6DEE8
:0403F90001811495D5
:0403FA0001D6B3B6BF
:0403FB00016436293A
:0403FC0001AAC80189
:0403FD0001C70E4FD7
:0403FE00015B022479
:0403FF0001A427022C
:04040000016DF97B16
:0404010001D646DEFC
:040402000061157E02
:04040300013CB2C343
:0404040001D1F3AD82
:04040500014C33462D
:040406000061157EFE
:0404070001C9B12551
:04040800015B7825F7
:0404090001D15F7945
:04040A00017FF2720A
:04040B0001818335B3
:04040C0001E7E99586
:04040D0001C295B1E2
:04040E0001F96AFE88
:04040F0001A62E41D3
:04041000016C5970B2
:0404110001F18EA4C3
:040412000159499FA4
:0404130001A9FD0935
:04041400018C3CE239
:0404150001783095A5
:0404160001EEC73DEF
:0404170001DC5F594C
:040418000174CBA3FD
:0404190001810775E1
:04041A0001D6B2FA5B
:04041B0001644075C3
:04041C0001AAB87504
:04041D0001C703FC14
:04041E00015B09FA7B
:04041F0001A436CA34
:04042000016E0B520C
:0404210001D63C12B2
:040422000061157EE2
:04042300013CAB9756
:0404240001D1E74AD1
:04042500014C29DE7F
:040426000061157EDE
:0404270001C9B7034D
:04042800015B694EBD
:0404290001D16B147E
:04042A00017FE21B51
:04042B0001818CEDD2
:04042C0001E7E241C1
:04042D0001C29CDB91
:04042E0001F968A6C2
:04042F0001A61F8380
:04043000016C668B6A
:0404310001F18B103A
:0404320001595276A4
:0404330001A9EDD35B
:04043400018C4C28C3
:0404350001783F66A5
:0404360001EECCE324
:0404370001DC6B2059
:040438000174D06E0D
:040439000180FA57ED
:04043A0001D6B23BFA
:04043B0001644AC549
:04043C0001AAA8E980
:04043D0001C6F9A655
:04043E00015B11D479
:04043F0001A446923C
:04044000016E1D2A02
:0404410001D631436C
:040442000061157EC2
:04044300013CA46F65
:0404440001D1DAE424
:04044500014C207ACC
:040446000061157EBE
:0404470001C9BCDE4D
:04044800015B5A7882
:0404490001D176AEB9
:04044A00017FD1C598
:04044B00018196A8ED
:04044C0001E7DAEBFF
:04044D0001C2A40341
:04044E0001F9664BFF
:04044F0001A610C42E
:04045000016C73A820
:0404510001F18779B5
:0404520001595B529F
:0404530001A9DE9B82
:04045400018C5B6D4F
:0404550001784E37A5
:0404560001EED2865B
:0404570001DC76E46A
:040458000174D53C1A
:040459000180ED3AF7
:04045A0001D6B1789E
:04045B0001645518CB
:04045C0001AA995DFB
:04045D0001C6EF4E97
:04045E00015B19B372
:04045F0001A4565846
:04046000016E2F03F7
:0404610001D6267228
:040462000061157EA2
:04046300013C9D4A71
:0404640001D1CE7D77
:04046500014C171916
:040466000061157E9E
:0404670001C9C2B64F
:04046800015B4BA544
:0404690001D18246F5
:04046A00017FC170DD
:04046B000181A06704
:04046C0001E7D3923F
:04046D0001C2AB27F6
:04046E0001F963ED40
:04046F0001A60203DD
:04047000016C80C7D4
:0404710001F183DF33
:040472000159643197
:0404730001A9CF63A9
:04047400018C6AB2DB
:0404750001785D0AA3
:0404760001EED82794
:0404770001DC82A67C
:040478000174DA1021
:040479000180E01FFF
:04047A0001D6B0B146
:04047B0001645F6F4A
:04047C0001AA89D276
:04047D0001C6E4F3DD
:04047E00015B219667
:04047F0001A4661E50
:04048000016E40DCED
:0404810001D61BA0E5
:040482000061157E82
:04048300013C962979
:0404840001D1C214CC
:04048500014C0DBB5E
:040486000061157E7E
:0404870001C9C88A55
:04048800015B3CD305
:0404890001D18DDD33
:04048A00017FB11C21
:04048B000181AA2A17
:04048C0001E7CC3781
:04048D0001C2B249AD
:04048E0001F9618E81
:04048F0001A5F3418F
:04049000016C8DE886
:0404910001F18043B2
:0404920001596D158A
:0404930001A9C02AD1
:04049400018C79F767
:0404950001786BDDA2
:0404960001EEDDC7CF
:0404970001DC8E6591
:040498000174DEE726
:040499000180D30506
:04049A0001D6AFE7F1
:04049B00016469CAC5
:04049C0001AA7A47F0
:04049D0001C6DA9525
:04049E00015B297E57
:04049F0001A475E45B
:0404A000016E52B7E0
:0404A10001D610CBA5
:0404A2000061157E62
:0404A300013C8F0C7D
:0404A40001D1B5AA23
:0404A500014C0462A0
:0404A6000061157E5E
:0404A70001C9CE5B5E
:0404A800015B2E04C2
:0404A90001D1997272
:0404AA00017FA0C965
:0404AB000181B3F028
:0404AC0001E7C4D9C7
:0404AD0001C2B96768
:0404AE0001F95F2BC6
:0404AF0001A5E47D42
:0404B000016C9B0B35
:0404B10001F17CA336
:0404B200015975FD7A
:0404B30001A9B0EFFC
:0404B400018C893CF2
:0404B50001787AB0A0
:0404B60001EEE3640C
:0404B70001DC9A22A8
:0404B8000174E3C325
:0404B9000180C5ED0C
:0404BA0001D6AF1A9E
:0404BB00016474283C
:0404BC0001AA6ABC6B
:0404BD0001C6D03470
:0404BE00015B316A43
:0404BF0001A485A966
:0404C000016E6493D2
:0404C10001D605F566
:0404C2000061157E42
:0404C300013C87F37E
:0404C40001D1A93E7B
:0404C500014BFB0CE0
:0404C6000061157E3E
:0404C70001C9D4286B
:0404C800015B1F367F
:0404C90001D1A506B2
:0404CA00017F9077A7
:0404CB000181BDB935
:0404CC0001E7BD790E
:0404CD0001C2C08226
:0404CE0001F95CC60E
:0404CF0001A5D5B7F7
:0404D000016CA82FE4
:0404D10001F17901BB
:0404D20001597EE965
:0404D30001A9A1B426
:0404D400018C98807F
:0404D500017889859C
:0404D60001EEE8FF4C
:0404D70001DCA5DDC2
:0404D8000174E8A41F
:0404D9000180B8D70F
:0404DA0001D6AE4851
:0404DB0001647E8AB0
:0404DC0001AA5B31E5
:0404DD0001C6C5D1BE
:0404DE00015B395A2B
:0404DF0001A4956D72
:0404E000016E7670C3
:0404E10001D5FB1C2A
:0404E2000061157E22
:0404E300013C80DD7B
:0404E40001D19CD0D6
:0404E500014BF1B91D
:0404E6000061157E1E
:0404E70001C9D9F27C
:0404E800015B106A3A
:0404E90001D1B098F5
:0404EA00017F8025E9
:0404EB000181C7863E
:0404EC0001E7B61658
:0404ED0001C2C79AE7
:0404EE0001F95A5F57
:0404EF0001A5C6F1AC
:0404F000016CB55690
:0404F10001F1755B45
:0404F200015987D94C
:0404F30001A9927851
:0404F400018CA7C40C
:0404F5000178985A98
:0404F60001EEEE978E
:0404F70001DCB196DD
:0404F8000174ED8915
:0404F9000180ABC211
:0404FA0001D6AD7307
:0404FB00016488EF21
:0404FC0001AA4BA75F
:0404FD0001C6BB6B0E
:0404FE00015B414F0E
:0404FF0001A4A5307F
:04050000016E884DB3
:0405010001D5F042EE
:040502000061157E01
:04050300013C79CB73
:0405040001D1906031
:04050500014BE86B53
:040506000061157EFD
:0405070001C9DFB88F
:04050800015B01A1F1
:0405090001D1BC2838
:04050A00017F6FD529
:04050B000181D15742
:04050C0001E7AEB1A4
:04050D0001C2CEAFAA
:04050E0001F957F5A3
:04050F0001A5B82961
:04051000016CC27E3A
:0405110001F171B3D0
:04051200015990CE2D
:0405130001A9833B7C
:04051400018CB70897
:040515000178A73092
:0405160001EEF42ED0
:0405170001DCBD4CFA
:040518000174F27305
:0405190001809EAF10
:04051A0001D6AC9BBF
:04051B00016493588C
:04051C0001AA3C1DD7
:04051D0001C6B10260
:04051E00015B4948EC
:04051F0001A4B4F38C
:04052000016E9A2BA3
:0405210001D5E565B6
:040522000061157EE1
:04052300013C72BD68
:0405240001D183EF8F
:04052500014BDF2087
:040526000061157EDD
:0405270001C9E57CA5
:04052800015AF2D9A9
:0405290001D1C7B77E
:04052A00017F5F8668
:04052B000181DB2B44
:04052C0001E7A749F3
:04052D0001C2D5C171
:04052E0001F95588F2
:04052F0001A5A95F1A
:04053000016CCFA8E3
:0405310001F16E085E
:04053200015999C60C
:0405330001A973FCAB
:04053400018CC64C24
:040535000178B6078C
:0405360001EEF9C316
:0405370001DCC8FF1C
:040538000174F761F2
:040539000180919E0E
:04053A0001D6ABBF7C
:04053B0001649DC5F5
:04053C0001AA2C9351
:04053D0001C6A696B7
:04053E00015B5146C6
:04053F0001A4C4B59A
:04054000016EAC0B91
:0405410001D5DA877F
:040542000061157EC1
:04054300013C6BB25A
:0405440001D1777CEE
:04054500014BD5D8B9
:040546000061157EBD
:0405470001C9EB3BC0
:04054800015AE4135D
:0405490001D1D345C4
:04054A00017F4F38A6
:04054B000181E50243
:04054C0001E79FDF45
:04054D0001C2DCD03B
:04054E0001F9531943
:04054F0001A59A94D4
:04055000016CDCD48A
:0405510001F16A59F1
:040552000159A2C3E6
:0405530001A964BDD9
:04055400018CD590B1
:040555000178C4DE87
:0405560001EEFF555E
:0405570001DCD4B13E
:040558000174FC54DA
:040559000180848E0B
:04055A0001D6AADF3D
:04055B000164A8355A
:04055C0001AA1D0AC9
:04055D0001C69C280F
:04055E00015B59489C
:04055F0001A4D476A9
:04056000016EBDEB80
:0405610001D5CFA74A
:040562000061157EA1
:04056300013C64AC47
:0405640001D16B074F
:04056500014BCC94E6
:040566000061157E9D
:0405670001C9F0F7DF
:04056800015AD54F10
:0405690001D1DED10D
:04056A00017F3EEBE4
:04056B000181EEDE3E
:04056C0001E7987398
:04056D0001C2E3DB09
:04056E0001F950A798
:04056F0001A58BC790
:04057000016CEA022E
:0405710001F166A886
:040572000159ABC4BC
:0405730001A9557D08
:04057400018CE4D33F
:040575000178D3B680
:0405760001EF04E6A7
:0405770001DCE06063
:040578000175014BBD
:040579000180778006
:04057A0001D6A9FC01
:04057B000164B2A9BC
:04057C0001AA0D8043
:04057D0001C691B76B
:04057E00015B614E6E
:04057F0001A4E437B8
:04058000016ECFCC6D
:0405810001D5C4C418
:040582000061157E81
:04058300013C5DA832
:0405840001D15E91B2
:04058500014BC3540F
:040586000061157E7D
:0405870001C9F6B000
:04058800015AC68DC1
:0405890001D1EA5B57
:04058A00017F2E9E21
:04058B000181F8BC36
:04058C0001E79104EE
:04058D0001C2EAE4D9
:04058E0001F94E33EE
:04058F0001A57CFA4C
:04059000016CF731D2
:0405910001F162F41E
:040592000159B4C98E
:0405930001A9463C38
:04059400018CF416CC
:040595000178E28F78
:0405960001EF0A74F3
:0405970001DCEC0C8B
:04059800017506479C
:0405990001806A74FF
:04059A0001D6A915C8
:04059B000164BD2119
:04059C0001A9FDF7BD
:04059D0001C68744C8
:04059E00015B69593B
:04059F0001A4F3F7C9
:0405A000016EE1AE59
:0405A10001D5B9E0E7
:0405A2000061157E61
:0405A300013C56A918
:0405A40001D1521817
:0405A500014BBA1834
:0405A6000061157E5D
:0405A70001C9FC6525
:0405A800015AB7CD70
:0405A90001D1F5E4A3
:0405AA00017F1E535C
:0405AB000182029E29
:0405AC0001E7899248
:0405AD0001C2F1E9AD
:0405AE0001F94BBD47
:0405AF0001A56E2A0A
:0405B000016D046372
:0405B10001F15F3DB8
:0405B2000159BDD35B
:0405B30001A936FA6A
:0405B400018D035959
:0405B5000178F16870
:0405B60001EF100041
:0405B70001DCF7B6B6
:0405B80001750B4777
:0405B90001805D69F7
:0405BA0001D6A82B93
:0405BB000164C79C74
:0405BC0001A9EE6F34
:0405BD0001C67CCD2A
:0405BE00015B716804
:0405BF0001A503B7D8
:0405C000016EF39144
:0405C10001D5AEFAB8
:0405C2000061157E41
:0405C300013C4FADFB
:0405C40001D1459E7E
:0405C500014BB0DF57
:0405C6000061157E3D
:0405C70001CA02174C
:0405C800015AA90F1C
:0405C90001D2016CEE
:0405CA00017F0E0996
:0405CB0001820C8419
:0405CC0001E7821EA3
:0405CD0001C2F8EB84
:0405CE0001F94943A3
:0405CF0001A55F5AC9
:0405D000016D119612
:0405D10001F15B8455
:0405D2000159C6E025
:0405D30001A927B79C
:0405D400018D129BE8
:0405D5000179004266
:0405D60001EF158A92
:0405D70001DD035EE1
:0405D8000175104C4D
:0405D90001805060ED
:0405DA0001D6A73D62
:0405DB000164D21ACB
:0405DC0001A9DEE6AD
:0405DD0001C672548D
:0405DE00015B797CC8
:0405DF0001A51375EA
:0405E000016F05752D
:0405E10001D5A4128A
:0405E2000061157E21
:0405E300013C48B5DA
:0405E40001D13923E5
:0405E500014BA7AA75
:0405E6000061157E1D
:0405E70001CA07C678
:0405E800015A9A53C7
:0405E90001D20CF23D
:0405EA00017EFDC0D1
:0405EB000182166D06
:0405EC0001E77AA801
:0405ED0001C2FFEA5E
:0405EE0001F946C801
:0405EF0001A550878B
:0405F000016D1ECBB0
:0405F10001F157C7F6
:0405F2000159CFF2EA
:0405F30001A91873CF
:0405F400018D21DE76
:0405F50001790F1D5C
:0405F60001EF1B13E3
:0405F70001DD0F040F
:0405F800017515551F
:0405F90001804359E1
:0405FA0001D6A64B35
:0405FB000164DC9D1E
:0405FC0001A9CF5E24
:0405FD0001C667D9F3
:0405FE00015B819488
:0405FF0001A52333FC
:04060000016F175916
:0406010001D599285E
:040602000061157E00
:04060300013C41C1B4
:0406040001D12CA54F
:04060500014B9E788F
:040606000061157EFC
:0406070001CA0D71A6
:04060800015A8B996F
:0406090001D218768C
:04060A00017EED7808
:04060B000182205AEE
:04060C0001E7732F60
:04060D0001C306E639
:04060E0001F9444A60
:04060F0001A541B44C
:04061000016D2C024A
:0406110001F1540798
:040612000159D908A9
:0406130001A9092E02
:04061400018D312003
:0406150001791DF951
:0406160001EF209838
:0406170001DD1AA740
:0406180001751A63EB
:0406190001803653D3
:04061A0001D6A5560A
:04061B000164E7236C
:04061C0001A9BFD69B
:04061D0001C65D5B5A
:04061E00015B89B043
:04061F0001A532F10E
:04062000016F293FFE
:0406210001D58E3C35
:040622000061157EE0
:04062300013C3AD18B
:0406240001D12026BA
:04062500014B954AA6
:040626000061157EDC
:0406270001CA1318D9
:04062800015A7CE116
:0406290001D223F9DE
:04062A00017EDD3040
:04062B0001822A4AD4
:04062C0001E76BB4C3
:04062D0001C30DDF19
:04062E0001F941C9C4
:04062F0001A532DF10
:04063000016D393AE5
:0406310001F150453E
:040632000159E22266
:0406330001A8F9E938
:04063400018D406193
:0406350001792CD546
:0406360001EF261C8E
:0406370001DD264774
:0406380001751F75B4
:040639000180294FC4
:04063A0001D6A45EE3
:04063B000164F1ACB9
:04063C0001A9B04F11
:04063D0001C652D9C7
:04063E00015B91D0FB
:04063F0001A542AD22
:00000001FF
